:100000000C942A000C9447000C9447000C94470071
:100010000C94FC000C9447000C9447000C9447008F
:100020000C9447000C9447000C9447000C94470034
:100030000C9447000C9447000C9447000C94470024
:100040000C9447000C9447000C9447000C94470014
:100050000C94470011241FBECFE5D8E0DEBFCDBF12
:1000600011E0A0E6B0E0E8EEFAE002C005900D92E3
:10007000AC37B107D9F721E0ACE7B1E001C01D9280
:10008000A838B207E1F70E947B010C9472050C942A
:100090000000FC012081211101C0089501965D9BA3
:1000A000FECF2CB9F6CF29B330E0082E02C035952B
:1000B00027950A94E2F720FD11C0EFE3FCE93197A0
:1000C000F1F700C0000029B330E002C03595279554
:1000D0008A95E2F72095822F8170089580E0089537
:1000E0008F929F92AF92BF92CF92DF92EF92FF9248
:1000F0000F931F93CF93DF93CDB7DEB7A0970FB6C3
:10010000F894DEBF0FBECDBFF89480918501209199
:10011000860140918701B0908201A0908301909068
:10012000840100917C0110917D01109281017894ED
:100130001F924F931F922F931F928F9380E690E010
:100140009F938F9387E6C82E80E0D82EDF92CF92C0
:100150001F9290E2892E8F927E018FEFE81AF80AA3
:10016000FF92EF920E946B02C7010E9449001F920A
:100170009F921F92AF921F92BF928BE790E09F9346
:100180008F93DF92CF921F928F92FF92EF920E94F5
:100190006B02C7010E9449000FB6F894DEBF0FBE84
:1001A000CDBF0230110529F148F484E990E0012B1C
:1001B00011F482E890E00E94490005C08EEB90E0C7
:1001C00003301105C1F383ED90E0A0960FB6F894CB
:1001D000DEBF0FBECDBFDF91CF911F910F91FF907A
:1001E000EF90DF90CF90BF90AF909F908F900C9446
:1001F000490089EA90E0DFCF0F920FB60F921F926D
:1002000011246F937F938F939F9380917E018F5FD3
:1002100080937E0180917E01843608F45FC0109245
:100220007E01809187018F5F809387018091870194
:100230008C3338F010928701809186018F5F809314
:100240008601809186018C3338F01092860180916E
:1002500085018F5F8093850180918501883110F041
:1002600010928501809187016AE00E943702911106
:1002700004C088B391E0892788BB809180018111F7
:1002800019C09091850180918201981313C09091BB
:1002900086018091830198130DC090918701809110
:1002A0008401981307C081E08093800183E08093EC
:1002B0007F01C19A80918001811549F080917F0171
:1002C0008115A9F080917F01815080937F0188B3CF
:1002D00098E0892788BB81E0809381019F918F916D
:1002E0007F916F911F900F900FBE0F9018951092F5
:1002F0008001C198ECCF87B38F6087BB88B3807FC4
:1003000088BB8AB3887F8ABB8BB387608BBB10BCEA
:1003100083E389B988E08AB986E880BD8FE085BD2E
:100320008DE483BD89B7806889BF789489ED90E0BA
:100330000E94490085E091E00E94490080E391E03D
:100340000E94490083ED90E00E9449000E947000E5
:10035000CCE3D0E003E010E0C29A80E00E945300BA
:10036000811531F1F8941092870110928601109254
:1003700085011092800110927F0188B38C7F88BB29
:1003800010927D0110927C01789482E691E00E94A7
:100390004900C89BFECF8FE39CE90197F1F700C0AD
:1003A00000008091810181110E947000C298D4CF19
:1003B00081E00E9453008115D9F080917C019091D9
:1003C0007D0182309105A9F148F4892B79F581E00E
:1003D00090E090937D0180937C0102C0039771F1BE
:1003E000C99BFECF8FE39CE90197F1F700C00000A5
:1003F00082E00E9453008115A1F280917C019091CE
:100400007D0182309105F9F08330910531F101973A
:1004100051F48091820190E0019668E170E00E94C1
:10042000430280938201CA9BFECFB5CF82E090E069
:10043000D0CF10937D0100937C01D2CF10927D012B
:1004400010927C01CDCF8091830190E00196BE0196
:100450000E94430280938301E6CF8091840190E063
:100460000196BE010E94430280938401DCCF99274C
:1004700078E0880F991F961708F0961B881F7A95C9
:10048000C9F78095089597FB072E16F4009407D0BE
:1004900077FD09D00E94570207FC05D03EF49095E5
:1004A00081959F4F0895709561957F4F0895AA1B80
:1004B000BB1B51E107C0AA1FBB1FA617B70710F04F
:1004C000A61BB70B881F991F5A95A9F78095909581
:1004D000BC01CD010895AEE0B0E0E1E7F2E00C949C
:1004E0004B0586E08C832B893C8929833A838D894F
:1004F0009E89813030E8930710F080E090E8019702
:100500008D839E83AE01475E5F4F6F89788DCE01EC
:1005100001960E949E024D815E8157FD0BC0EF81C6
:10052000F8854E175F070CF4FA012B893C89E20F1E
:10053000F31F10822E96E2E00C946705ABE0B0E06A
:10054000E4EAF2E00C943E056C017B018A01FC01B7
:1005500016821782838181FFDFC13AE0532EF601B4
:100560002381F70123FD859123FF81917F0181156F
:1005700009F437C1853239F423FD959123FF919118
:100580007F01953229F4B60190E00E94A504E7CFDF
:1005900030E0912C612C712CF0E27F1640F59B32FB
:1005A000D9F058F49032D1F09332F1F09E3291F5B7
:1005B00076FC17C1689476F806C09D3291F09033AE
:1005C000C1F4689470F8F70123FD959123FF919190
:1005D0007F019111E1CF28C0689471F8689472F896
:1005E000F2CF689473F8EFCF689474F8ECCF77FC8F
:1005F0001BC080ED890F8A30C8F676FE05C0959C39
:10060000800D1124982EDFCF659C800D1124682E5B
:100610007F2AD9CF9C3619F4689477F8D4CF9C34CC
:1006200009F445C0983679F2892F8F7D855483303F
:1006300008F43FC0933609F461C0933709F46BC0E6
:10064000933509F477C0943619F0993609F0A4C0AF
:10065000F80177FE9AC061917191819191918F011A
:10066000272D2F76822E97FF04C00E9433056894B1
:1006700087F82AE030E05E014FEFA41AB40AA50122
:100680000E94D504782E7A1886FECFC0882D8E7FE2
:10069000791408F0C9C084FE1DC182FC11C12EEE80
:1006A0008222B92C882D867809F4CBC00EC131E0A6
:1006B0008ACF311501F1085F1F4F8FE3898321E055
:1006C000822E912C5E012FEFA21AB20AE89477F8DD
:1006D00073FC03C086149104F0F18114910409F0B5
:1006E00041C0611409F43BCFB60180E290E00E9462
:1006F000A5046A94F6CF0C5F1F4FDFCFF80180810D
:1007000089830E5F1F4F91E0892E912C5E01FFEFD0
:10071000AF1ABF0ADBCFF801A190B1908F01692D0C
:1007200070E076FC02C06FEF7FEFC5010E949A0473
:100730004C01CCCFF801A190B1908F01692D70E0F0
:1007400076FC02C06FEF7FEFC5010E948F044C0161
:10075000689477F8BDCFB60180E290E00E94A504CE
:100760006A94B8CFF50177FC859177FE81915F019E
:10077000B60190E00E94A50481E0611001C080E014
:10078000681AF1E08F1A9108A8CF61917191872FB3
:10079000880F880B982F63CF9537C9F4872CE8947E
:1007A00084F82AE030E0F80187FE39C06191719148
:1007B000819191918F015E01FFEFAF1ABF0AA501F0
:1007C0000E94D504782E7A18E89487F85DCF872D9B
:1007D000897F882E903799F058F49835A9F09F3684
:1007E000D9F0F601868197812B96EFE00C945A059B
:1007F0009837B9F774FC05C020E130E0D4CF689495
:1008000084F8689482F8F8CF74FE03C0E72DE660A0
:100810008E2E20E132E0C7CF28E030E0C4CF6191D6
:10082000719180E090E0C6CF882EB72C84FE3ACF3D
:10083000FE01E70DF11D8081803309F044C049EECF
:10084000842283FC0EC080FE51C0972CB61418F48D
:10085000960C9B18B62C862D8B196B1408F480E02F
:10086000B80EB61408F044C06B1884FE43C0B6013D
:1008700080E390E00E94A50482FE09C088E590E034
:1008800081FC02C088E790E0B6010E94A5047914BB
:10089000E0F15E018FEFA81AB80A7A9482E0882E00
:1008A000912C8C0E9D1E870C911CF40182914F019E
:1008B000B60190E00E94A5048A149B04B1F711CF01
:1008C000B92C882EB5CF82FC02C0B394BACFB394B2
:1008D000B394B7CFB92C882EE5CEB60180E290E074
:1008E0000E94A504A394A614C0F3B5CFAB2CFBCFF4
:1008F000612CBBCF882D867851F280E281FC8BE29F
:1009000087FC8DE2B60190E0C0CFB60180E390E0B5
:100910000E94A5049A94BBCF8FEF9FEF65CFFC0197
:100920000590615070400110D8F7809590958E0F1A
:100930009F1F0895FC016150704001900110D8F78D
:10094000809590958E0F9F1F08950F931F93CF93BF
:10095000DF93182F092FEB018B8181FD09C00FEF69
:100960001FEF812F902FDF91CF911F910F9108954D
:1009700082FF14C02E813F818C819D812817390709
:100980003CF4E881F981CF01019688839983108333
:100990008E819F8101968E839F83E3CFE885F985C1
:1009A000812F0995892BA1F3DACFFA01AA272830E4
:1009B00051F1203181F1E8946F936E7F6E5F7F4F2C
:1009C0008F4F9F4FAF4FB1E03ED0B4E03CD0670FA8
:1009D000781F891F9A1FA11D680F791F8A1F911DFB
:1009E000A11D6A0F711D811D911DA11D20D009F44B
:1009F00068943F912AE0269F11243019305D31938D
:100A0000DEF6CF010895462F4770405D4193B3E075
:100A10000FD0C9F7F6CF462F4F70405D4A3318F01C
:100A2000495D31FD4052419302D0A9F7EACFB4E0CD
:100A3000A6959795879577956795BA95C9F7009785
:100A40006105710508959B01AC010A2E0694579526
:100A5000479537952795BA95C9F7620F731F841F7D
:100A6000951FA01D089590958095709561957F4F75
:100A70008F4F9F4F08952F923F924F925F926F92A8
:100A80007F928F929F92AF92BF92CF92DF92EF921E
:100A9000FF920F931F93CF93DF93CDB7DEB7CA1B9F
:100AA000DB0B0FB6F894DEBF0FBECDBF09942A88CA
:100AB000398848885F846E847D848C849B84AA8472
:100AC000B984C884DF80EE80FD800C811B81AA81FF
:100AD000B981CE0FD11D0FB6F894DEBF0FBECDBFCA
:080AE000ED010895F894FFCF29
:100AE80054494D453A2000257320253032753A2562
:100AF8003032753A253032750D0A00414C524D3A64
:100B080020004D4F44453A204C4F5720504F5745F1
:100B1800520D0A004D4F44453A2053455420414C4C
:100B280041524D2048480D0A004D4F44453A205344
:100B3800455420414C41524D204D4D0D0A004D4F1A
:100B480044453A2053455420414C41524D2053537B
:100B58000D0A002D2D2D0D0A000D0A3D3D20415492
:100B68006D6567613332204173796E632054696D16
:100B78006572322054696D656B656570696E6720B2
:100B88003D3D0D0A002853696D756C494445206D3B
:100B98006F64653A20696E7465726E616C20636C6F
:100BA8006F636B2066616C6C6261636B290D0A0070
:100BB800427574746F6E733A205041303D526573BC
:100BC800657420205041313D536574416C61726DEC
:100BD80020205041323D496E6372656D656E740D1B
:100BE8000A0054494D4520524553455420544F203E
:0C0BF80030303A30303A30300D0A000046
:00000001FF
